:020000040800F2
:1000000048070020492E00085D2D00085F2D0008DC
:10001000612D0008632D0008652D00080000000018
:10002000000000000000000000000000672D000834
:10003000692D0008000000006B2D00086D2D0008E0
:10004000952E0008992E00089D2E0008A12E00086C
:10005000A52E0008A92E00086F2D0008B12E00085B
:10006000B52E0008B92E0008BD2E00085D0300085B
:10007000C52E0008C92E0008CD2E0008D12E00087C
:10008000D52E0008D92E0008DD2E0008E12E00082C
:10009000E52E0008E92E0008ED2E0008F12E0008DC
:1000A000F52E0008F92E0008FD2E0008012F00088B
:1000B000052F0008092F00080D2F0008112F000838
:1000C000152F0008192F00081D2F0008212F0008E8
:1000D0000B1E0008292F00082D2F0008312F0008C3
:1000E000352F0008392F0008852D0008412F000802
:1000F000452F0008492F00084D2F00085503000820
:10010000552F0008592F00085D2F000865030008CF
:10011000652F0008692F00086D2F0008712F000857
:10012000752F0008792F00087D2F0008812F000807
:10013000852F0008892F00088D2F0008912F0008B7
:10014000952F0008992F00089D2F0008872D000883
:10015000A52F0008A92F0008AD2F0008B12F000817
:10016000B52F0008B92F0008BD2F0008C12F0008C7
:10017000C52F0008C92F0008CD2F0008D12F000877
:10018000D52F0008D92F000870B504000D00160007
:10019000300000F0C5FDEDB2652D01DB642106E005
:1001A000EDB2FF2000FB05F0642190FBF1F132007D
:1001B000C9B2200080B200F0F8F8002801D0012078
:1001C00002E000F073FC002070BD38B504000D00A3
:1001D0006808DFF8F419086000F069F9DFF8E80949
:1001E00000684008B0F5803F04D2DFF8DC09006801
:1001F000410801E04FF6FF71200000F0E7FCDFF856
:10020000C8090068B0F5803F03D2DFF8BC09006878
:1002100001E04FF6FF70D0EB5500DFF82C1A0860B4
:10022000DFF8A4090068B0F5803F03D2DFF8980931
:10023000006801E04FF6FF7014EB4000DFF8641A2D
:100240000860002032BD80B5DFF844080168DFF89F
:100250003C08006800F0D9FE00287AD0DFF8E809F1
:100260000068002861D0DFF82408006800F0C1FEB3
:100270000028F8D1DFF818080168DFF810080068D6
:1002800000F0E2FEDFF81C0A0068DFF8C0198860A1
:10029000DFF8B4090068B0F5803F06D2DFF8A8099E
:1002A0000068DFF8A819086104E04FF6FF70DFF876
:1002B0009C190861DFF89419DFF8D007006800F096
:1002C0005FFE0121DFF8C407006800F085FEDFF85B
:1002D00078090068B0F5803F03D2DFF86C09006848
:1002E00001E04FF6FF70DFF8BC19096811EB400020
:1002F000DFF8B0190860DFF850090068B0F5803FFA
:1003000003D2DFF84409006801E04FF6FF70DFF820
:1003100038190968081ADFF8301908600121DFF878
:100320006C07006800F058FE13E00021DFF85C075E
:10033000006800F051FEDFF858070168DFF84C074D
:10034000006800F081FE0021DFF85809006800F025
:100350000FFF01BD80B5FFF776FF01BD80B5FFF748
:1003600072FF01BD80B50221DFF85C0A01F0B0F830
:10037000002819D0DFF81007006802280CD100F01F
:1003800093FC010089B2042001F0FEF80021DFF89F
:10039000380A01F079F807E000F086FC010089B224
:1003A000DFF8240A01F070F801BDF8B504000D0073
:1003B0001600002700F0CDFA00F0A4F800F060FA73
:1003C0000121022000F0B0F8C0190700AF2104207D
:1003D00000F0AAF8C0190700AF20DFF84019087034
:1003E0008121052000F0A0F8C01907000421062093
:1003F00000F09AF8C01907002800C0B200F059F8C0
:10040000DFF8C809006802281DD10121082000F08A
:100410008BF8C01907000121092000F085F8C019E8
:100420000700C0210E2000F07FF8C019070000214E
:10043000142000F079F8C01907000021152000F001
:1004400073F8C01907009E21022000F06DF8C01952
:10045000070000210A2000F067F8C0190700DFF844
:100460006C090068022805D004210E2000F05CF819
:10047000C01907000021272000F056F8C019070016
:100480000F211F2000F050F8C01907000A211A2080
:1004900000F04AF8C01907000A211B2000F044F8B8
:1004A000C0190700300000F017FA3800F2BD002034
:1004B000704738B504000025E4B2E72C10DB14F1D6
:1004C0001901C9B2202000F02FF84019050014F1DD
:1004D0001901C9B2212000F027F8401905000FE0EA
:1004E00014F11901C9B2202000F01EF840190500CE
:1004F00014F11901C9B2212000F016F840190500C5
:10050000280032BD80B500221021DFF8C40801F0B8
:10051000A2F844F6FF7000F0BDFA01221021DFF8C6
:10052000B00801F098F801BD70B504000D00002678
:100530005FF49610DFF89C1808605FF40031DFF874
:10054000980801F00EFA00280BD0DFF88808006840
:10055000411EDFF8802811600028EED100F0A4FAD7
:100560008AE00121DFF8700801F0A4F94FF480500F
:10057000DFF860180860DFF86418DFF85C0801F045
:10058000D4F900280BD1DFF84C080068411EDFF8D1
:10059000442811600028EED100F086FA6CE00022B9
:1005A0009421DFF8340801F0A1F94FF48050DFF80E
:1005B00024180860DFF82818DFF81C0801F0B5F9E6
:1005C00000280BD1DFF80C080068411EDFF8042872
:1005D00011600028EED100F067FA4DE02100C9B2A9
:1005E000DFF8F40701F09BF94FF48050DFF8E417CF
:1005F0000860DFF8F017DFF8E00701F096F900284F
:100600000BD1DFF8D0070068411EDFF8C827116062
:100610000028EED100F048FA2EE02900C9B2DFF838
:10062000B80701F07CF95FF49610DFF8A8170860AE
:10063000DFF8B417DFF8A00701F093F900280BD119
:10064000DFF890070068411EDFF888271160002856
:10065000EED100F029FAEBE70121DFF87C0701F089
:1006600037F92000C0B200F008F8EDB2A84201D17D
:10067000002600E00126300070BD38B504000025DA
:100680005FF49610DFF84C1708605FF40031DFF874
:10069000480701F066F900280BD0DFF8380700683A
:1006A000411EDFF8302711600028EED100F0FCF980
:1006B000E5E00121DFF8200701F0FCF84FF480505D
:1006C000DFF810170860DFF81417DFF80C0701F0E7
:1006D0002CF900280BD1DFF8FC060068411EDFF87A
:1006E000F42611600028EED100F0DEF9C7E0002208
:1006F0009421DFF8E40601F0F9F84FF48050DFF8B8
:10070000D4160860DFF8D816DFF8CC0601F00DF932
:1007100000280BD1DFF8BC060068411EDFF8B426C4
:1007200011600028EED100F0BFF9A8E02100C9B2A5
:10073000DFF8A40601F0F3F84FF48050DFF89416C8
:100740000860DFF8A416DFF8900601F00AF9002827
:100750000BD1DFF880060068411EDFF878261160B3
:100760000028EED100F0A0F989E00121DFF8680649
:1007700001F0A0F84FF48050DFF858160860DFF859
:100780005C16DFF8540601F0D0F800280BD1DFF832
:1007900044060068411EDFF83C2611600028EED1B7
:1007A00000F082F96BE001229421DFF82C0601F0C1
:1007B0009DF84FF48050DFF81C160860DFF82C1607
:1007C000DFF8140601F0CDF800280BD1DFF804069D
:1007D0000068411EDFF8FC2511600028EED100F012
:1007E00063F94CE00021DFF8F00501F08AF8DFF84A
:1007F000000600880121DFF8E00501F069F84FF4F8
:100800008050DFF8D0150860DFF8E815DFF8C8057C
:1008100001F0A7F800280BD1DFF8B8050068411EE9
:10082000DFF8B02511600028EED100F03DF926E098
:10083000DFF8A40501F076F805004FF48050DFF8EA
:1008400094150860DFF89005008880050BD5DFF867
:1008500084050068411EDFF87C2511600028F1D175
:1008600000F022F90BE00121DFF86C0501F049F8F6
:10087000DFF88415DFF8600501F096F8280032BD36
:1008800000B585B001215FF4001001F033F9DFF805
:10089000480500F04FFF0020ADF804004BF6FF7054
:1008A000ADF806003320ADF808004FF48060ADF8D5
:1008B0000A004FF48040ADF80C00DFF840050090CE
:1008C0000121DFF8140500F0E7FF6946DFF80805AD
:1008D00000F05CFF05B000BD10B588B00400012138
:1008E0004FF4004001F006F9DFF8DC0400F076FC7C
:1008F00002940020ADF802000020ADF804000020B2
:10090000ADF80C004FF40070ADF800004FF400702B
:10091000ADF806006946DFF8B00400F0B5FCDFF87A
:10092000AC040068022812D101215FF0005001F0F0
:10093000E1F800200490002005900020079004A911
:10094000002000F0F5FD0121002000F00AFE08B0B3
:1009500010BD00B583B00121082001F0BAF81020C5
:10096000009001208DF8040001208DF80500002082
:100970008DF8060000208DF807006946DFF8500466
:1009800000F014FE0121072001F0A3F84FF41070CD
:10099000009002208DF8040002208DF8050001204F
:1009A0008DF8060000208DF807006946DFF8500436
:1009B00000F0FCFD04220621DFF8440400F052FEA2
:1009C00004220921DFF8380400F04CFE4FF4A05057
:1009D000009002208DF8040002208DF80500002010
:1009E0008DF8060000208DF807006946DFF8140432
:1009F00000F0DCFD06220421DFF80C0400F032FEDA
:100A000006220A21DFF8FC0300F02CFE1E480068D5
:100A100002280DD0102000906946DFF8EC0300F0AA
:100A2000C5FD06220C21DFF8DC0300F01BFE10E000
:100A30000121012001F04DF81020009003208DF8D5
:100A4000040000208DF807006946DFF8BC0300F0C1
:100A5000ADFD8020009002208DF8040002208DF86A
:100A6000050000208DF8060000208DF8070069467B
:100A7000DFF8900300F09AFD06220721DFF88403D7
:100A800000F0F0FD07BD00001C0000202400002045
:100A90003000002001B40098002803D00098401EC8
:100AA0000090F8E701B07047FEE7000000B583B0A2
:100AB00000BFDFF818030068012864D10121DFF8C6
:100AC0004C03006801F005F80021DFF844030068DA
:100AD00000F082FADFF83803006800F0B1F9DFF8BF
:100AE0003403006859490860DFF82C03006857494F
:100AF000486000205549886040205449C8604FF63E
:100B0000FE70524908610020504948614FF48060EE
:100B10004E4988614FF400604C49C8614FF4005061
:100B20004A4908620020494948625FF40030474959
:100B3000886200204549C8620020444908630020BB
:100B4000424948630020414988634049DFF8C002B8
:100B5000006800F015FA01221021DFF8B4020068E5
:100B600000F084FADFF8B40200688DF804000A206F
:100B70008DF805000A208DF8060001208DF8070089
:100B800001A801F010F891480068012805D1012260
:100B900002218D4800F07AFC15E000F059F801229E
:100BA0007121894800F07DFC33208DF800000A2077
:100BB0008DF801000A208DF8020001208DF8030055
:100BC000684600F0F0FF07BD1400002038B50400AF
:100BD0000D00934801688E48006800F035FA7B48A4
:100BE000006801280FD1194884606800174908611E
:100BF00016498748006800F0C3F90121844800685D
:100C000000F0EAF917E00020864908808648046071
:100C1000280080B24000854908800C4884600B4859
:100C200005610A497A48006800F0AAF9012178486C
:100C3000006800F0D1F97E480088400503D4012106
:100C4000614800F011FC31BDD808002048080020A0
:100C500000B587B00121774800F03BFF01215FF02C
:100C6000005000F047FF1020009003208DF8040092
:100C700000208DF807006946634800F097FC0020CB
:100C8000029000200390022005900020049002A909
:100C9000002000F04DFC0121002000F062FC07B0B4
:100CA00000BD0000DC080020604800885D4B1B8808
:100CB00098422FD35B480088401C5A4B1880434809
:100CC0000068022818D1584800680200554800788A
:100CD000C00709D454480068801C534B1860524820
:100CE0000068801C504B1860B2F900000100B1F59B
:100CF0000040514B18800AE04B48006802004A4807
:100D00000068801C484B186010884B4B18804A487C
:100D1000008801E04848008870470000FF08002074
:100D200010B50400002000F04EFE2000B0F5FA5F80
:100D300019D042F61131884220D0B0F57A5F18D030
:100D400045F2226188422FD0B0F5FA4F1BD04AF607
:100D5000444188422ED04BF68031884218D0374922
:100D600088421BD02BE005214FF4807000F024FE58
:100D700025E00221D52000F01FFE20E00221D52031
:100D800000F01AFE1BE00221D52000F015FE16E04F
:100D900003214FF4817000F00FFE10E002214FF4A8
:100DA000AC7000F009FE0AE0042140F2AD1000F042
:100DB00003FE04E0022140F20F1000F0FDFD0120CF
:100DC00000F001FE10BD0000003C00401C000020AF
:100DD000000C0240180000200054004001000300F5
:100DE00082000700800007000400001002000010CD
:100DF000185400404000001000040010A0860100BC
:100E000000040240000802400000024020000020D0
:100E100024000020E4080020280000202C000020EE
:100E200030000020FA080020E0080020F808002028
:100E30001C3C004001002000FC080020007701005D
:100E400001684908490001600021016000214160FA
:100E5000002181600021C1600021016121214161E7
:100E6000DFF84C12884204D13D21DFF8482211609E
:100E700085E0DFF84412884205D14FF47461DFF851
:100E8000342211607BE0DFF83412884205D15FF430
:100E90007411DFF82022116071E0DFF8241288421B
:100EA00005D15FF07461DFF80C22116067E0DFF8B4
:100EB0001412884205D1DFF81012DFF810221160F9
:100EC0005DE0DFF80C12884205D1DFF80812DFF888
:100ED000FC21116053E0DFF80012884205D1DFF8F1
:100EE000FC11DFF8E821116049E0DFF8F4118842D5
:100EF00005D15FF03D51DFF8D42111603FE0DFF80C
:100F0000E411884204D13D21DFF8DC21116036E094
:100F1000DFF8D811884205D14FF47461DFF8C82199
:100F200011602CE0DFF8C811884204D15FF474111D
:100F30006D4A116023E06F49884204D15FF074610B
:100F4000694A11601BE06C49884203D15E496B4AD3
:100F5000116014E06A49884203D15E49674A116012
:100F60000DE06849884203D15C49644A116006E09B
:100F70006549884203D15FF03D51604A1160704776
:100F800010B4002203681A00604B1A400B68CC684A
:100F900023434C6923438C692343CC6923430C6A64
:100FA00023434C6A23438C6A23434C6B23438C6B4F
:100FB00023431A43026043691A00D208D200CB6A65
:100FC0000C6B23431A4342610B6943604B68836097
:100FD0008B68C36010BC7047C9B2002904D0026896
:100FE00052F00102026003E00268520852000260FF
:100FF0007047010000200A68D20702D501221000C4
:1010000001E000221000C0B2704730B4020000209E
:101010000024344DAA4202D23D4D2B0001E03D4D4B
:101020002B008D0002D55D682C0001E01D682C00AE
:10103000394D2C400C4202D00125280001E000254A
:101040002800C0B230BC7047264B984202D2304BC9
:101050001A0001E02F4B1A008B0003D52E4B0B40DA
:10106000D36002E02C4B0B409360704710B40B062A
:101070000BD5D2B2002A04D0436953F080034361F8
:1010800003E0436933F08003436180290DD0D2B27D
:10109000002A05D0036811F01E042343036004E016
:1010A000036811F01E04A343036010BC70470000E6
:1010B0001060024008600240286002404060024028
:1010C00058600240706002403D0000200C60024009
:1010D00088600240400F0020A060024000003D20D8
:1010E000B860024010640240086402402864024074
:1010F0004064024058640240706402400C64024044
:1011000088640240A0640240B86402403F801CF042
:1011100000600240006402407D0F7D0F1FB5012179
:10112000002000F0BBFD002000F07CFD012000F05D
:1011300079FD022000F076FD032000F073FD684683
:1011400000F046FC50244FF4FA522100C9B20220AC
:10115000FFF71AF8032000F087FD0A2000F028F8B6
:1011600000F002FE40211048FFF72FF800BFFDE716
:1011700070B504000D0000200600F6B2202E0ADA39
:101180000A48F6B2711030F911000749F6B221F899
:101190001600761CF1E740210348FFF716F80320FC
:1011A00000F06CFD70BD000048070020B80800206A
:1011B00010B586B0040001A800F00AFC029842F2C3
:1011C0001071B0FBF1F0604300900098002803D04C
:1011D0000098401E0090F8E706B010BD10B504005E
:1011E000964884420AD101214FF4805000F0AFFCB0
:1011F00000214FF4805000F0AAFC44E09048844263
:101200000AD101214FF4804000F092FC00214FF4FC
:10121000804000F08DFC36E08A4884420AD10121EA
:101220004FF4004000F084FC00214FF4004000F037
:101230007FFC28E0844884420AD101214FF4005009
:1012400000F085FC00214FF4005000F080FC1AE013
:101250007E4884420AD101215FF4801000F077FCBF
:1012600000215FF4801000F072FC0CE078488442AA
:1012700009D101215FF4001000F069FC00215FF446
:10128000001000F064FC10BD2DE9F84F5FF000087D
:1012900002225FF0000E01235FF0000C0024002505
:1012A00000260027B0F81C904FF2400A1AEA0909FC
:1012B000A0F81C905FF00209A0F82090B0F81C90F4
:1012C000C846D1F80890B9F1020F06D15FF00009C5
:1012D000CE465FF002094A4682E0B1F80490B9F1C7
:1012E000000F03D15FF001094B4602E05FF00209F5
:1012F0004B46DFF86091D9F800905FEA092909D5DB
:10130000DFF85091D9F8009039F40009DFF844A1D2
:10131000CAF80090DFF84091D9F80090C9F3881915
:101320004E46DFF83491D9F80090C9F302794F4660
:10133000DFF82891D9F8009019F03F094D46DFF801
:101340001C91D9F800905FEA492909D5DFF810917E
:10135000B9FBF5F906FB09F9B9FBF7F94C4608E0CA
:10136000DFF80091B9FBF5F906FB09F9B9FBF7F9CC
:101370004C46B1F80690B9F5007F0FD15FEA142909
:101380005FF00A0A0AFB09F9D1F808A0B9FBFAF9DB
:1013900019F105091FFA89F9CC4611E09BB25FEA01
:1013A0004319B4FBF9F95FF00A0A0AFB09F9D1F80D
:1013B00008A0B9FBFAF919F105091FFA89F9CC4619
:1013C0005FF00A09BCFBF9FC1CF00109CE461FFACC
:1013D0008EFEBCEB0E095FEA59094A465FEA0E2E03
:1013E00092B2022A02DB92B2FF2A05DD5FF0020907
:1013F0004A465FF00009CE46B1F8069059EA0E0958
:1014000059EA0209A0F82090CDF80080B1F80080D8
:10141000B1F80290B1F804B0B1F80CA05AEA0B0A86
:101420005AEA090959EA080858F40069DDF8008009
:1014300059EA0808A0F81C80BDE8F18F003001408F
:1014400000380040003C00400034014000500140A2
:1014500000540140083802408438024004380240F9
:1014600000127A000024F400C9B2002904D0828B53
:1014700052F48062828304E0828B4FF6FF331A407D
:10148000828370478089704781817047D2B2002A79
:1014900003D083880B43838002E083888B4383805F
:1014A000704730B4002400250B00DBB21B09DBB20F
:1014B0001C000123A3401D00D2B2002A03D0838860
:1014C0002B43838002E08388AB43838030BC70472A
:1014D0000200002013890B4202D00123180001E012
:1014E00000231800C0B27047F0B4030000200024AD
:1014F00000260025012211F00F07BA4014000A004F
:10150000D2B21209D2B21600012212FA06F69A8855
:10151000324015001A89224205D0ADB2002D02D00A
:101520000122100001E000221000C0B2F0BC7047A0
:1015300030B4002300221C4C2468230040F6FE74C3
:101540008440A3430C684D682C438D682C43CD68C0
:101550002C43220012FA00F42343134C236030BCC6
:101560007047C9B2002907D00F4A1268012383408F
:101570001A430D4B1A6006E00B4A126801238340A0
:101580009A43094B1A60704781B000220092064AC4
:101590000092009A10F108039A18009289B2009AFA
:1015A000116001B07047000000740040F0B40022E8
:1015B0000023002400252A00102A4AD20125954044
:1015C0002B000D681D402C009C4240D1056803266D
:1015D0001700FFB27F00BE40B543056005680E7975
:1015E0001700FFB27F00BE40354305600D79012D25
:1015F00002D00D79022D1AD1856803261700FFB29B
:101600007F00BE40B543856085684E791700FFB204
:101610007F00BE4035438560456801269640B5434E
:10162000456045688E799640B6B235434560C568D9
:1016300003261700FFB27F00BE40B543C560C568F2
:10164000CE791700FFB27F00BE403543C560521C03
:10165000B2E7F0BC7047D2B2002A01D0018300E0AB
:1016600041837047F0B400230024D2B211F0070583
:10167000EDB2AD0012FA05F52B0089B2CD1010EBDA
:10168000850589B2CE1010EB8606366A0F2711F059
:10169000070C5FFA8CFC5FEA8C0C17FA0CF7BE4360
:1016A0002E6289B2CD1010EB85052D6A1D432C00EA
:1016B00089B2CD1010EB85052C62F0BC7047F0B4F8
:1016C000016844688368091801EB5402E40748BFC5
:1016D0004B440C3091422BD011F8014B14F0030510
:1016E00004BF11F8015BED1C26090F2E07D111F87C
:1016F000016B0F3603E011F8017B03F8017B6D1ECF
:10170000F9D1002EE6D0A40811F8015B04F003041F
:10171000032C08BF11F8014B05EB04241C1BB51C5E
:10172000D8D014F8016B03F8016B6D1EF9D1D1E725
:10173000F0BC704710B50400514884420AD1012121
:101740005FF4001000F0F4F900215FF4001000F0E5
:10175000EFF91AE04B4884420AD101215FF480007E
:1017600000F0E6F900215FF4800000F0E1F90CE000
:101770004548844209D101215FF4000000F0D8F906
:1017800000215FF4000000F0D3F910BD2DE9F04313
:1017900085B004000D005FF0000900260427DFF883
:1017A000EC80A08881464FF6C07010EA09096846AF
:1017B00000F00EF9029880463548B8FBF0F00600BC
:1017C00056EA0909A4F8049020884FF6FE710840F3
:1017D00020800020814628682E4988420ED2286841
:1017E0004000B8FBF0F00700BFB2042F01DA04207C
:1017F000070057EA0909701C208426E0E8884BF6A8
:10180000FF71884206D1286803214843B8FBF0F0F5
:10181000070007E0286819214843B8FBF0F00700EB
:1018200057F48047380501D157F0010757F40040BD
:1018300050EA0909B6B24FF4967000FB06F04FF477
:101840007A7190FBF1F0401C2084A4F81C90208851
:1018500050F001002080208881464FF6F53010EAD4
:101860000909A8886989084350EA0909A4F8009081
:10187000A88929890843208105B0BDE8F0830000CC
:101880000054004000580040005C004000127A0004
:1018900040420F00A1860100C9B2002904D002888D
:1018A00052F00102028004E002884FF6FE731A40F3
:1018B00002807047C9B2002904D0028852F48072B5
:1018C000028004E002884FF6FF631A4002807047EE
:1018D000C9B2002904D0028852F40072028004E0E8
:1018E00002884FF6FF531A4002807047D2B2002A96
:1018F00002D051F0010101E011F0FE01C9B20182F4
:101900007047C9B2002904D0028852F48062028074
:1019100004E002884FF6FF331A4002807047C9B2D4
:1019200001827047008AC0B2704770B40200002381
:10193000002400250020968A3400168B35002D04E3
:1019400055EA04063602360A330011EA03068E42CF
:1019500002D10126300001E000263000C0B270BC88
:10196000704782B0020000200023019300230093FF
:1019700000920B0F01930902090A019B002B03D06F
:10198000009B1433009303E0090C009B1833009371
:10199000009B1B680B4202D00123180001E00023CA
:1019A0001800C0B202B0704700220B021B0A1A00D6
:1019B000D3438382704701000A0752EA8012DFF89E
:1019C000B4311A607047C0B2DFF8AC1108607047DC
:1019D000F0B4002100220023022400250226DFF8B3
:1019E0008C713F6817F00C0739000F00002F04D0EE
:1019F000042F06D0082F08D03CE0DFF88071076084
:101A00003BE0DFF87C71076037E0DFF864713F6826
:101A1000C7F380573D00DFF858713F6817F03F0764
:101A20003E00002D0DD0DFF85871B7FBF6F7DFF858
:101A300040C1DCF800C0CCF3881C0CFB07F73B006E
:101A40000CE0DFF83871B7FBF6F7DFF824C1DCF8FB
:101A500000C0CCF3881C0CFB07F73B00DFF81071CB
:101A60003F68C7F301477F1C7F003C00B3FBF4F7DE
:101A7000076002E0DFF804710760DFF8F0703F688C
:101A800017F0F00739000909DFF8F870CF5D3A0068
:101A90000768D7404760DFF8D4703F6817F4E05715
:101AA0003900890ADFF8DC70CF5D3A004768D7401B
:101AB0008760DFF8B8703F6817F460473900490B5A
:101AC000DFF8C070CF5D3A004768D740C760F0BC10
:101AD0007047C9B2002907D0DFF8AC201268024372
:101AE000DFF8A4301A6004E0274A12688243264BCC
:101AF0001A607047C9B2002905D0244A126802430F
:101B0000224B1A6004E0214A126882431F4B1A607C
:101B10007047C9B2002905D01D4A126802431C4B08
:101B20001A6004E01A4A12688243194B1A6070471F
:101B3000C9B2002905D0174A12680243154B1A6032
:101B400004E0144A12688243124B1A607047C9B20B
:101B5000002905D0104A126802430F4B1A6004E0B6
:101B60000D4A126882430C4B1A60704708380240D5
:101B70000438024084380240680047420024F400E0
:101B800000127A0034000020303802404038024011
:101B90004438024020380240243802401C490143A6
:101BA0001C4A1160704770B4002300210F22C478D2
:101BB000002C21D0174C246814F4E064D4F5E064C0
:101BC000240A2300D3F104042100D2B21A4144783C
:101BD0008C4023008478144023431B010E4C05786D
:101BE0002B550124057815F01F05AC400B4D0678E8
:101BF000761145F8264009E00124057815F01F0507
:101C0000AC40074D0678761145F8264070BC704709
:101C10000000FA050CED00E000E400E000E100E067
:101C200080E100E01CB5040001214548E4B250F811
:101C30002400FFF74EFF4348E4B230F81400009050
:101C400001208DF8040000208DF8060001208DF899
:101C5000070002208DF8050069463B48E4B250F8C1
:101C60002400FFF7A3FC13BD3649C0B231F81010B1
:101C7000354AC0B252F82020518370473249C0B271
:101C800051F8201049692F4AC0B232F81020514053
:101C90002D4AC0B252F820205161704730B585B04E
:101CA00004000D0001212948E4B250F82400FFF798
:101CB00010FF01214FF48040FFF72BFF00208DF82B
:101CC000100000208DF813002148E4B230F8140011
:101CD000039003A91F48E4B250F82400FFF766FC04
:101CE000EDB2012D29D11C48E4B2215C1B48E4B2BD
:101CF000205C00F039F91A48E4B230F81400019081
:101D000000208DF8080008208DF8090001208DF8CA
:101D10000A0001A800F052F91248E4B2205C8DF8E4
:101D200000000F208DF801000F208DF80200012027
:101D30008DF803006846FFF736FF05B030BD0000A0
:101D4000382E0008642E0008000000206C2E0008C9
:101D5000B619000810000020DF240008DE24000867
:101D60008E2400086627000880B5012210214FF458
:101D7000FA4000F005F81021704800F030F801BD7D
:101D800070B504000D0016006D480068002801D0F1
:101D9000002023E06B48006850F4805069490860D7
:101DA0006948002141606848002181604FF47A5001
:101DB0006549088001206449C88101206249888101
:101DC000614800F04DF900F04FF800F0A1F8200054
:101DD00000F078F801205A490860002070BD38B53D
:101DE00004000D005648006800280CD057480460D5
:101DF000012260215648FFF754FB01215448FFF7A8
:101E000033FB002000E0012032BD38B5602150488E
:101E1000FFF76AFB002826D04D48FFF733FB05008B
:101E2000280080B2290251EA10204A494A4A126821
:101E300021F8120048480068401C4749086046489D
:101E4000006840280FD30020434908605020040058
:101E50003D4B220092B23D4801683E4800F07AF9BD
:101E600001203E49086031BD00B583B00121062044
:101E7000FFF72FFE01210620FFF72BFE02208DF831
:101E8000040000208DF8060000208DF807000220D5
:101E90008DF805004FF48060009069463048FFF7E8
:101EA00085FB05220A212E48FFF7DCFB0820009065
:101EB00069462C48FFF77AFB052203212948FFF7E2
:101EC000D1FB07BD1FB5040001214FF48040FFF78F
:101ED00011FE1F48FFF782F9600802902020ADF83C
:101EE00002000020ADF804000820ADF80C004FF40B
:101EF0004070ADF800000020ADF8060069461448B7
:101F0000FFF7C2F9012260211148FFF7CAFA1FBD8D
:101F100080B54FF48060FFF741FE24208DF800006B
:101F200001208DF8010000208DF8020001208DF8BD
:101F300003006846FFF737FE01BD0000B808002027
:101F4000E80800203038024084080020F008002013
:101F500000380040C8070020F4080020EC080020EA
:101F6000000402400008024030B400220F2311F0A8
:101F70000304E4B2A400A3401A000F4BC9B28C10B2
:101F800053F8243093430C4CC9B28D1044F82530DB
:101F9000094BC9B28C1053F82430C0B211F00304BD
:101FA000E4B2A40010FA04F42343034CC9B28D1028
:101FB00044F8253030BC7047083801400021234ADE
:101FC00011008279002A36D0204A126803689A43A9
:101FD0001E4B1A601E4A126803689A431C4B1A6013
:101FE000027989180A6803681A430A60194A126854
:101FF00003689A43174B1A60174A126803689A439A
:10200000154B1A604279102A0CD1124A12680368E3
:102010001A43104B1A60104A126803681A430E4B99
:102020001A600EE0094A1100427989180A680368AB
:102030001A430A6005E0027989180A6803689A431E
:102040000A6070470549086070470000003C014085
:10205000043C0140083C01400C3C0140143C014060
:102060002DE9F04F0646DFF8DC03DFF8DC130160F2
:10207000DFF8D8130068884236D1DFF8D403016056
:1020800006F110070020F860B86078603860B86129
:102090007861386174682046002100F0E1F924D0AD
:1020A0004FF08740214600F0E9F900F0F1F90546CC
:1020B0008946204600F0ECF904468846308800F056
:1020C00019FADFF89023DFF8903300F021FA224666
:1020D000434600F049FB02460B462846494600F0BD
:1020E00017FA00F0B5FB01E0FEE70020B883B46802
:1020F0002046002100F0B4F922D03588280200F0F3
:10210000EFF982468B46204600F0C2F902460B46A4
:10211000DFF84003DFF8401300F0C0FB04468846B8
:10212000284600F0E7F92246434600F01DFB024630
:102130000B465046594600F0EBF900F089FB00E0F1
:102140000020F88330884FF47A7190FBF1F03884E6
:10215000BDE8F08F2DE9FE4F96B0DFF8F412096864
:10216000DFF8E822914200D0FEE7194610310091D5
:102170000969009A52690792009A92690392009A3B
:10218000D2F8009052680692009A9268009BDB6831
:10219000189CA4890194009CA48B0594009CE48B5A
:1021A000089400244FF48075059EAD1B0D95019D8C
:1021B000C5EBC5050C95019D05EB450675000B9516
:1021C000019D05EB85050A95019D05EB45050995E2
:1021D000009D2D8C012DC0F21D810578DFF8706205
:1021E000AD19069E95F80472BE190E9695F8046115
:1021F00009EB46072D79019E365CDFF854C2664430
:1022000096F804C2674402970F9796F8047105EB9D
:1022100047053679019F10F81770DFF834C267441C
:1022200097F804C26544109597F804C106EB4C0674
:102230003F79DDF824C01CF800C0DFF814E2E64462
:102240009EF804C2664411969EF804C107EB4C0741
:102250009EF804E0DDF804C010F82CC0DFF8F0812F
:10226000E04498F804C26744129798F804C10EEB52
:102270004C0C98F80480DDF828E01EF800E0DFF848
:10228000D091F14499F804E2E644CDF84CE099F895
:1022900004C108EB4C0C99F804A0DDF82C8018F868
:1022A0000080DFF8AC91C14499F80482E044CDF895
:1022B000508099F804C10AEB4C0A99F80490DDF8B3
:1022C00030C01CF800C0DFF888B1E344CDF810B08E
:1022D0009BF804C2E244CDF854A0DDF810C09CF88D
:1022E00004C109EB4C09CDF81890DDF810C09CF83A
:1022F0000490DDF838C0CCEBCC0B03EB8B03DDF89E
:1023000008C04FF0150B0BFB0C33C5EB051C6344E9
:1023100006EB860C03EB4C0307EB470C03EB4C037B
:102320000EEB4E0C634408EB030C0E9B03EBC30354
:1023300002EB8302029B4FF02A0B0BFB03222E239E
:1023400003FB0522BB1903EB430302EB03122E230D
:1023500003FB0E220BFB08220AEBCA0302EB8303EA
:10236000029A05EB4505AA1806EB460502EB450265
:1023700007EB870502EB4502CEEB0E15AA181525D3
:1023800005FB0822CAEBCA0502EB8502ACF5003555
:10239000089E56B1089E6918079FC91B7143CE114C
:1023A00001EB1661091207950D46059E66B10D9E5B
:1023B000039FDDF814C005FB0CF507FB0655EE1175
:1023C00005EB16652D120395BDF85C607543012D74
:1023D000ACBF0835083DEE1005EB16752D11DFF882
:1023E0007C60B542B8BF354605DB47F6BD76B542E1
:1023F000A8BF47F6BC75189EF6896643169F27F856
:102400001650019D00EBC500641C009D2D8CAC4254
:10241000FFF6E3AE0098C0F800900098069C446078
:10242000009882600098C360009801610098079945
:1024300041610098039981610098008C19B0BDE852
:10244000F08F000000300240C2A507F4CDB5E8B51A
:10245000440000201F85EB51B81E19404480FFFF47
:1024600040EA010C5FEA4C0C07D0884205D14FEAE4
:10247000400C1CF1807F98BF8042704700EE100A2C
:1024800000EE901A20EE200A10EE100A70470100AC
:102490005FF0FF0C1CEAD05114BF614506E0C1108B
:1024A000400721F0E04101F16051704779B900F037
:1024B000004100020AD0B0FA80FC00FA0CF001F1F1
:1024C0006051A1EB0C5101EBD02140057047410256
:1024D0000CBF40F4E0016FF00001002070470000E5
:1024E000010040F10980F446404200F005F851F047
:1024F00000416047010000BF09D0B0FA80F1884078
:10250000C91CC1F58461090501EBD0214005704764
:102510002DE9F04140F2FF7581EA030C0CF0004C0C
:1025200015EA11541DBF15EA1357AC42AF42E9E05A
:10253000BC41C1F31301C3F31303801A994143F45F
:10254000801304D2641E4000494180185941C902D9
:1025500041EA5051B1FBF3F603FB1611A2FB0675DD
:10256000D7EBC020A94102D2761E80185941C9027A
:1025700041EA5051B1FBF3FE03FB1E11A2FB0E75A5
:10258000D7EBC020A94103D2AEF1010E801859410A
:10259000890241EA9051760546EA8E2EB1FBF3F6A8
:1025A00003FB1611A2FB0675D7EB8020A94102D2CE
:1025B000761E80185941C90241EA50514EEA060E72
:1025C000B1FBF3F603FB1611A2FB0675D7EBC02097
:1025D000A94102D2761E80185941C90241EA5051E0
:1025E000B1FBF3F703FB1711A2FB0735D3EBC020B8
:1025F000A94167F100070CBF004247F0010766F3ED
:10260000D5274FEA1E31B80814F5806414DDBD07E4
:1026100075F1004250EB0E5051EB045111F5801F43
:102620005CBF41EA0C01BDE8F0814CF07F6141F0F4
:10263000E0410020BDE8F081BD076D0840EA0E5082
:1026400041F48011D4F10104B4F120060ADAC4F196
:1026500020060200E04001FA06F3E1401843B240D0
:1026600015430EE0342C14DCC6F1200445EA400585
:102670006D0820FA06F2154321FA06F0A1400D4339
:10268000002175F1004250F1000051EB0C01BDE852
:10269000F08100205FEA0C01BDE8F081CFB992180B
:1026A0005B41B3FA83F704BFB2FA82F6BF190B3F5E
:1026B000B7F120062FBF02FA06F3BB40C7F1200690
:1026C00022FA06F638BF3343BA401CB1E419641E3F
:1026D0002FE77F4231F00041B1FA81F404BFB0FA34
:1026E00080F6A4190B3CB4F120062FBF00FA06F1C6
:1026F000A140C4F1200620FA06F638BF3143A040BD
:102700003C1B16E7AC421ABF05EA1357AF4214E070
:1027100050EA41061CBF52EA4306BFE750EA4107B0
:10272000304661461CBF41EA0551BDE8F08152EADE
:10273000430C08BFC143BDE8F08100204FF40016F0
:1027400016EB410F98BF16EB430F08BF16EB410F76
:1027500024BFC14305E016EB430F0CBF61464CEAB2
:102760000551BDE8F0810600F0B44FF0004591EA54
:10277000030C44BF6B4000F063B900BF841A71EBD7
:10278000030603D2001BB141121973414FF4001C20
:102790001CEB410F34BF7CEB430443E00C0DA4EB76
:1027A0001356352E50DC45EAC323DB0A45EAC12126
:1027B000C912B6F120050DDD63FA05F6EB4086EA95
:1027C0000305124218BF45F00105C01851F1000180
:1027D0000CD213E062FA06F5F2405540F3415A403C
:1027E000B340F3405A408018594107D349085FEA83
:1027F00030005FEA350528BF45F0010501F580117D
:10280000420875F1004250F1000041EB0451F0BC68
:102810004FF4001C1CEB410F38BF70470020090D1E
:10282000090570471CEB410F10D252EA43060BD04A
:10283000BCEB410F05D80C0DAB43661E342EB5DD45
:1028400002E0AB4380185941F0BC7047F0BC7047C0
:10285000F446400D40EAC120490006D200F00EF8CF
:10286000004248BF6FF00040604700F007F84FF0AB
:10287000004188428CBF08464042604740F000401B
:10288000490DA1F58061491C05D4D1F11F0154BF48
:10289000C840C01770474FF000007047B0B581EADC
:1028A000030C0CF0004C40F2FF7515EA11541DBFEB
:1028B00015EA1357AC42AF4239E0E41923EA455315
:1028C00043F48013C90241F0004141EA505EC7025F
:1028D0001100A7FB020200284FF00000EEFB0120D0
:1028E0004FF00001E3FB072118BF42F0010240183E
:1028F00000214941E3FB0E01A4F580640F0302D2DD
:1029000052004041494154F101046CDD470872F125
:10291000004250F1000051EB0451A1F580115CBF61
:1029200041EA0C01B0BD4CEA05510020B0BD05EAFA
:102930001357AC4214BFAF4241E050EA410E1CBFF6
:1029400052EA430E02E061460020B0BD24423C44FE
:102950001BD15FEA070EF6D0090302BF0146002033
:10296000AEF1140EB1FA81F7AEEB070401FA07FEDF
:102970000C37C7F1200100FA07F7C8404EEA000EF5
:1029800023EA455343F48013A2E733F00043B3FA3C
:1029900083F704BFB2FA82FE77440B3FE41BB7F122
:1029A000200E2FBF02FA0EF3BB40C7F1200E22FA11
:1029B0000EFE38BF43EA0E03BA40641C82E750EAB9
:1029C000410E14BF52EA430E6FF000014FF400179E
:1029D00017EB430F8ABF194617EB410FB5E74CEAD7
:1029E00005510020B0BDD4F10104B4F120070FDA85
:1029F000C4F12007520828BF42F0010210FA07F57F
:102A000001FA07F7E1BF2A43E0403843E1400FE015
:102A1000352C98DCC7F1200452EA400220FA07F274
:102A200018BF42F0010231FA07F0A1400A43002129
:102A300072F1004250F1000051EB0C01B0BD0000FA
:102A4000841A71EB030604D26E40001BB1411219C7
:102A500073414FF4001C1CEB410F34BF7CEB430669
:102A600084E00C0DA4EB1356362E7DDC012E43DCE6
:102A700045EAC32343EA525312BFD20292025B08D3
:102A8000240545EAC12141EA5051D2EBC0209941C9
:102A900025D407D1B0FA80F610FA06F164D00020F0
:102AA000203608E0B1FA81F6B140C6F1200220FAE2
:102AB00002F21143B0404FEAF474B4EB465434F0E0
:102AC00001064FEA74040AD8D6F50016760D04F014
:102AD0000044F04061FA06F25040F1404840C00A1C
:102AE00040EA415021F0004128BF5FEA500550F113
:102AF000000044EBD12137E045EAC323DB0A45EA75
:102B0000C121C90AB6F120050EDD42EA0242120CCB
:102B1000C5F1200603FA06F6EB4042EA06056D42CF
:102B2000984161F100010DE062FA06F5F24055406E
:102B300063FA06FC82EA0C02F3405A406D4290416F
:102B400061EB030111F4801F05D1641E620502D000
:102B50006D004041494121F48011430875F1004363
:102B600050F1000041EB0451F0BC70471CEB410FE9
:102B700015D223F0004352EA43060BD04FEA4C0C27
:102B8000BCEB410F04D80C0D661E342EB7DDEBE70D
:102B9000801A994150EA410608BF0021E4E708BFC6
:102BA0001CEB430F28BF6FF00001DDE780B54E48F6
:102BB000006850F001004C49086000204B49086053
:102BC000494800684A4908404749086049484A4915
:102BD00008604548006830F48020434908600020C0
:102BE0004649086000F005F85FF00060444908605D
:102BF00001BD82B000200190002000903A4800689A
:102C000050F48030384908603748006810F40030CC
:102C100000900198401C01900098002803D1019871
:102C2000B0F5A04FF0D130480068800302D50120F4
:102C3000009001E000200090009801283ED131482A
:102C4000006850F080502F4908602F48006850F409
:102C500040402D4908602548006824490860234801
:102C6000006850F40040214908602048006850F492
:102C7000A0501E49086025481F4908601A4800688E
:102C800050F0807018490860174800688001FBD533
:102C900040F205601E490860144800688008800002
:102CA000124908601148006850F002000F4908609E
:102CB0000E48006810F00C000828F9D10B48006895
:102CC00030F40000094908601248134908600648BA
:102CD000006850F080600449086003480068000103
:102CE000FBD502B0704700000038024008380240AF
:102CF000FFFFF6FE10300024043802400C3802407A
:102D000008ED00E0403802400070004008544007E1
:102D1000003C0240804000308438024019E050F806
:102D2000041BCB0744BFA9F101035918121F00234C
:102D3000042A41F8043BF9D25FEA827C0B4604D5B1
:102D40004FF0000CA1F800C09B1CD10744BF00212C
:102D5000197050F8042B002AE1D170477047FEE744
:102D6000FEE7FEE7FEE7704770477047704780B5A3
:102D70000120034908700120FFF764F901BD00003C
:102D8000FE0800207047704710B507497944183194
:102D9000064C7C44163404E00A68081D5118884724
:102DA0000146A142F8D110BD2C00000048000000EF
:102DB0004EF68851CEF20001086840F470000860B9
:102DC000BFF34F8FBFF36F8F4FF00070E1EE100A2B
:102DD0007047000049FFFFFFB801000048070020CE
:102DE00000000000DBE8FFFFF4010000A204000087
:102DF0000000002000F00BF8002801D0FFF7C4FF0E
:102E00000020C046C046FEF789F900F002F8012014
:102E1000704700F001B800000746384600F002F89D
:102E2000FBE7000080B5C046C046024A11001820EA
:102E3000ABBEFBE72600020008000000080000000F
:102E400008000000080000000148804701480047D2
:102E5000AD2B0008592E0008C046C046FFF7A8FF5A
:102E6000FFF7C8FF001000200040008001000000B4
:102E7000FFF774BFFFF773BFFFF772BFFFF771BFB4
:102E8000FFF770BFFFF76FBFFFF76EBFFFF76DBFB4
:102E9000FFF76CBFFFF7FEBFFFF7FEBFFFF7FEBFF8
:102EA000FFF7FEBFFFF7FEBFFFF7FEBFFFF75FBFF5
:102EB000FFF7FEBFFFF7FEBFFFF7FEBFFFF7FEBF46
:102EC000FDF74CBAFFF7FEBFFFF7FEBFFFF7FEBFEF
:102ED000FFF7FEBFFFF7FEBFFFF7FEBFFFF7FEBF26
:102EE000FFF7FEBFFFF7FEBFFFF7FEBFFFF7FEBF16
:102EF000FFF7FEBFFFF7FEBFFFF7FEBFFFF7FEBF06
:102F0000FFF7FEBFFFF7FEBFFFF7FEBFFFF7FEBFF5
:102F1000FFF7FEBFFFF7FEBFFFF7FEBFFFF7FEBFE5
:102F2000FFF7FEBFFEF771BFFFF7FEBFFFF7FEBF63
:102F3000FFF7FEBFFFF7FEBFFFF7FEBFFFF722BFA1
:102F4000FFF7FEBFFFF7FEBFFFF7FEBFFFF7FEBFB5
:102F5000FDF700BAFFF7FEBFFFF7FEBFFFF7FEBFAA
:102F6000FDF700BAFFF7FEBFFFF7FEBFFFF7FEBF9A
:102F7000FFF7FEBFFFF7FEBFFFF7FEBFFFF7FEBF85
:102F8000FFF7FEBFFFF7FEBFFFF7FEBFFFF7FEBF75
:102F9000FFF7FEBFFFF7FEBFFFF7FEBFFFF7FEBF65
:102FA000FFF7F1BEFFF7FEBFFFF7FEBFFFF7FEBF63
:102FB000FFF7FEBFFFF7FEBFFFF7FEBFFFF7FEBF45
:102FC000FFF7FEBFFFF7FEBFFFF7FEBFFFF7FEBF35
:102FD000FFF7FEBFFFF7FEBFFFF7FEBFB002000C1A
:102FE000024004200B000240FFFF000000C012005E
:102FF000010001300A2000B86002400C3C00402F64
:1030000000012228072002010203040430020607FF
:1030100008091720411C15310F2B24400A261F3B9D
:1030200019352E4A06221B3715312A46102C254108
:103030001F3B3450031F1834122E27430D29223E04
:103040001C38314D09251E3A18342D49132F2844B8
:10305000223E3753011D16322C201A0B27203C1A12
:10306000362F4B07231C3816322B47112D264220B2
:103070003C3551042019352C60060E2A233F1D399A
:10308000324E68F0067014302945233F3854806072
:103090000D12152717292C3E182A2D3F2F41445673
:1030A0000820063042455747595C6E1C20022E40CE
:1030B000435514600246585B6D08211C60125E7017
:1030C000738515272A3C2C3E41532D3F42544456CC
:1030D000596B08200645575A6C5C6E71831C2002A0
:1030E0004355586A1460025B6D708208211C60129F
:1030F0007385889A12242739293B3E502A3C3F5138
:103100004153566808200642545769596B6E801C1B
:10311000200240525567146002586A6D7F08211CD6
:1031200060127082859727393C4E3E5053653F515F
:10313000546656686B7D08200657696C7E6E8083E6
:10314000951C200255676A7C1460026D7F8294088A
:10315000211C180285979AAC12100A01030304047B
:103160000606070709090A01101B0B0B0D0D0E0EB1
:1031700010101111131314140F0F10101212131337
:103180001515161618181901600C1A1A1C1C1D1D8D
:103190001F1F2020222223231860061B1B1C1C1E1D
:1031A0001E1F1F1810152525262628282929242406
:1031B0002525272728282A2A2B2B2D2D2E01A00C48
:1031C0002F2F3131323234343535373738384C21BE
:1031D00034A0122626272729292A2A2C2C2D2D2FE8
:1031E0002F30302B2B2C2C34A00E3535363638387A
:1031F00039393B3B3C3C3E3E3F3F4C10013A3A3B69
:103200000141181015414142424444454540404166
:1032100041434344444646474749494A01000C4B11
:0D3220004B4D4D4E4E505051515353545490
:0400000508002E5968
:00000001FF
